:020000041000EA
:1000000000B5324B212058609868022188439860DF
:10001000D860186158612E4B002199600221596106
:100020000121F02299502B49196001219960352056
:1000300000F044F80222904214D00621196600F024
:1000400034F8196E01211966002018661A6600F04E
:100050002CF8196E196E196E052000F02FF8012189
:100060000842F9D1002199601B49196000215960AB
:100070001A491B48016001219960EB211966A021F2
:10008000196600F012F800219960164914480160C1
:100090000121996001BC002800D000471248134993
:1000A000086003C880F30888084703B5996A0420EC
:1000B0000142FBD001200142F8D103BD02B5186610
:1000C0001866FFF7F2FF186E186E02BD00000240BE
:1000D000000000180000070000035F00212200005C
:1000E000F4000018222000A00001001008ED00E03C
:1000F00000000000000000000000000074B24E7A12
:1001000000200420F7010010C3010010C5010010F9
:10011000C1010010C1010010C1010010C101001097
:10012000C1010010C1010010C1010010C701001081
:10013000C1010010C1010010C9010010CB01001065
:10014000CD010010CD010010CD010010CD01001037
:10015000CD010010CD010010CD010010CD01001027
:10016000CD010010CD010010CD010010CD01001017
:10017000CD010010CD010010CD010010CD01001007
:10018000CD010010CD010010CD010010CD010010F7
:10019000CD010010CD010010CD010010CD010010E7
:1001A000CD010010CD010010CD010010CD010010D7
:1001B000CD010010CD010010CD010010CD010010C7
:1001C00000BE00BE00BE00BE00BE00BEEFF3058054
:1001D000103800BEF2EB8871A8F80510C8F80510B9
:1001E0003402001090A31AE700201F49086006C8D7
:1001F00081F3088810471D48006800282FD10DA4FE
:100200000ECC002902D000F012F8F9E71849194A7B
:10021000002000E001C19142FCD1174988471749ED
:1002200088471749884700BEFDE701C901C29A42C5
:10023000FBD37047C8F80510C0000020F81C002050
:100240000015061000000420000004200015061010
:10025000001004200010042000000000704709482E
:1002600003F0EAFE0047000008ED00E0000000D0C7
:10027000F81C0020E47F00203D2800102504001019
:10028000652900105756000006005250ABB360536A
:10029000F0F7011006005250861C030200F801100E
:1002A000060052505422A29D0CF801100500525035
:1002B000DE65F46800150610F8B5C0460448054B25
:1002C00010B5834203D0044B002B00D0984710BDDB
:1002D000F81C0020F81C0020000000000648074918
:1002E000091A8B10C90FC91810B5491003D0044B57
:1002F000002B00D0984710BDF81C0020F81C0020EF
:100300000000000010B5074C2378002B09D1FFF73F
:10031000D5FF054B002B02D0044800E000BF0123AD
:10032000237010BD681E00200000000068F101105D
:10033000054B10B5002B03D00449054800E000BF71
:10034000FFF7CCFF10BDC046000000006C1E00206F
:1003500068F10110F8B515000722CE4647464B0854
:10036000134080B50E000360502304004360042155
:1003700030009046994600F02DFB701C8026042129
:1003800000F028FB254876018446300001272268CA
:10039000616893009B18224A9B0080319A1889B2A9
:1003A00011616344196818430904090C01601B6852
:1003B00004211B0C1B04036038001368324398436C
:1003C000106040466B080340A3604B462800E36082
:1003D00000F000FB681C042100F0FCFAA168E26850
:1003E0008B005B180E499B008032591892B20A614B
:1003F0000A4A3000944663441A6818431204120CE7
:1004000002601B680E431B0C1B0403600B689F43B8
:1004100037600CBC90469946F8BDC0460C000540BC
:1004200000000540F0B5C64600B58EB004F0ECFC07
:10043000FA20800001F098FB6A4804F037FC6A4813
:100440001EF018F8FA2009AD800001F08DFB14228F
:100450000021280004F0CCFA082206212800FFF72A
:1004600079FF8023614F984606AC09E0AA689100A5
:1004700089185F4A8900944661440B6028746B7444
:10048000142001F071FB200000F036FA207AA278E7
:100490002188E3780490E0790390A0790290607954
:1004A000019020790090380004F0A2FC4346E078E7
:1004B000181A04F0BDF904F0DDF900B27F2866DCFB
:1004C0000300803369DB40B2802322799B1A9BB200
:1004D000802B31D0021C7F3000DA812252B25BB215
:1004E000D01AD3187F282FDD7F38C31A7F227F20B0
:1004F0005BB269688C46624412042E682968B4466F
:100500003B4E89006144B446890061440A60D917B2
:100510005A184A40D2B2002BA8D0E96839DB8918B2
:100520000904AE68AA68B446314E92006244B446EB
:10053000920062441160A1E7031C7F3000DA81233E
:100540005BB218007F337F3802007F320ADA7F30D7
:10055000C31A7F207F225BB2404269688C466244A6
:1005600092B2CAE77F2B26DD7F3BC01A7F237F2212
:100570005B4240B200282DD12E682968B4461C4E3B
:1005800089006144B446890061440860C3E77F2064
:100590009AE78C46624491B2C3E7802322799B1A82
:1005A0009BB2802BCBD07F205BB24042C01A0200AE
:1005B0007F3B7F32CBDB1A007F3206DB5B425BB2D4
:1005C000D9175A184A40D2B2D3E77F33C01A7F22D4
:1005D0007F23CEE7C11742184A40D2B2002888DAFA
:1005E000BBE7C04668F101102109001070F101104D
:1005F0000C0005400C4B10B51B88002B10D10122BC
:100600000A4B197851400020197006F09DFD084CE6
:10061000FA21200010F030FB200010F039FB10BD53
:100620000121024BEFE7C046BA730020EF730020B0
:1006300020290020F0B5C64600B5140082B0042879
:1006400013D113781B2B4DD013D8052B2ED0162B7E
:100650001AD18D4804F02AFB6946A01C062210F02E
:10066000AFFB6846894917F09DFF02B004BC904675
:10067000F0BD602B20D0EF2B0DD191780D2936D80D
:10068000834A8B00D3589F46032BEED19178814843
:1006900004F0AEFBE9E7332BE7D10821100010F09E
:1006A00051FB01007C4804F0A3FBDEE75279A178FE
:1006B0007A4804F09DFBD8E79378022BD5D1784C8B
:1006C000200010F0FFFB0100764804F091FB0121AF
:1006D0002000754A0CF092FE011EC6D0734804F04B
:1006E00087FBC2E71179724804F082FBBDE77148CD
:1006F00004F07EFBB9E76179002900D09EE0012279
:10070000694C6D4B20881A700CF016FE01006B4886
:1007100004F06EFB0522032120880DF0E3FCA4E722
:10072000654B1B78002B00D18CE00521200010F0D8
:1007300003FB242899D9E379A12B96D1237A112B95
:1007400000D092E7C021637CE27B89001B020B4052
:10075000110909030B43217C677B1943E37AA67BCC
:100760009846237BA57C9C46554BE07C19804146EE
:1007700099706146D9700F2100240A405C721F7184
:100780005E719D71D8711A726FE7617900296ED11F
:10079000A179002973D001296DD04A4804F028FBC3
:1007A00063E706212000657910F0C6FA29000200EF
:1007B000454804F01DFB58E7657906226946A01DEF
:1007C00010F0FEFA002D49D13B4B032120001D7093
:1007D00010F0B2FA344B1880684610F073FB010039
:1007E0003A4804F005FB6946394810F09FFA3CE7A7
:1007F00006226946601D10F0E3FA684610F062FBBD
:100800000100344804F0F4FA0321200010F094FAB7
:1008100001210CF0CFFD28E72D4810F053FB01001B
:100820002D4804F0E5FA00221F4B2C491A80224B78
:1008300023481A700A2204F0E1F816E7284804F069
:10084000D7FA12E7274804F031FA0521200010F00A
:1008500073FA0100E01D10F0EBFA06E7684610F0AD
:1008600031FB2A000100204804F0C2FADBE71F48F0
:1008700004F0BEFAF9E61E4804F018FAF5E61D4841
:1008800004F014FAF1E6C0465CF2011080F20110A7
:1008900060F40110F8F1011088F2011014F2011057
:1008A000D46A0020ACF10110BA730020CCF1011021
:1008B00044F2011044F40110E773002004F3011026
:1008C000FC730020D8F3011018F40110F0F20110AD
:1008D000C42B0020ACF20110FCF30110C0F4011095
:1008E00028F3011058F30110CCF201107CF3011031
:1008F000BCF30110A0F3011070B5050006F02EFC4A
:10090000040003685B6898470A222800034904F042
:1009100075F8236820009B68984770BDFC73002021
:1009200070B506F021FC041E37D1022012F07EF9CA
:100930001C4D1D4BFA212800AB6010F09DF92800DA
:1009400010F0A6F919F04EF80DF0DAFF80211748E3
:1009500089000CF009FD164D28000CF025FD05203E
:1009600017F078FA002017F045FE1248456012F0A3
:100970007FF81149114810F053FB0022104B114928
:100980001C80114B11481A700A2204F037F801201C
:1009900017F070FA10F094F970BD0D4804F086F964
:1009A000FAE7C04620290020F5050010485B00202A
:1009B00035060010B0490020D46A0020ACF40110C4
:1009C000BA730020C0F40110E7730020FC7300200C
:1009D00098F40110094A830094464022634410B5FC
:1009E0001C68C0006240C02414408022520113439E
:1009F0001C60034B9C466044416010BD04C0014034
:100A0000004001400A4B80009C46042360440029BA
:100A100001D00C230821002A00D10B0002685340AA
:100A20000C221A4080235B01184302607047C046C5
:100A300004C00140084B80009C466044002905D05A
:100A400080239B011843022303607047C0239B014E
:100A5000184302230360F8E704C00140D0231B06BB
:100A60001B6830B55C1EA34105000F485C428446FC
:100A700007203023284023408000EC0881402000DC
:100A80000A4D3C3063448000A40041511B19002AE8
:100A900004D0802292011343196030BDC02292011C
:100AA00013431960F9E7C04600410140004001408E
:100AB000D023F0B5C64604001B0698461B680C4FB1
:100AC0009B00F8580D00160000B5044209D1320011
:100AD000290004430D20FC5000F07EF904BC904630
:100AE000F0BD01F05BFF43461B689B00F858EEE742
:100AF000CC6A002010B504000D2000F04FFAD0237E
:100B00001B061B6802499B005A58A2435A5010BD4D
:100B1000CC6A00200123D0228340120693629361A5
:100B2000094A83009446402263441968C0004A4041
:100B3000C02111408022520113431960034B9C468F
:100B4000052360444360704704C0014000400140F9
:100B5000024B18688007C00F7047C04600C00640AF
:100B6000EFF3108072B6034A1368002BFCD0BFF37A
:100B70005F8F70472C0100D0BFF35F8F0022024BC4
:100B80001A6080F3108870472C0100D0F8B5EFF39D
:100B9000108772B60E4E3368002BFCD0BFF35F8F08
:100BA000CB08C4180725A446C45C01230D40AB4004
:100BB00018002040234208D1624623431370BFF33C
:100BC0005F8F306087F31088F8BD100001F0CEFE13
:100BD0002C0100D0F8B5CE4647468C4680B5EFF3E1
:100BE000108872B6214D2C68002CFCD0BFF35F8FAB
:100BF0009A422CD8D4080721055D0619012411401A
:100C00008C402C421FD007218946063909E0D408C0
:100C1000055D06194C460F001440A7403C002F42CA
:100C200011D001329342F2D201204042BFF35F8FD4
:100C300000220E4B1A6088F3108800280FDB0CBCD2
:100C400090469946F8BD2C4310003470EEE7BFF390
:100C50005F8F00232B6088F3108801204042634699
:100C6000002BECD0089801F081FEC0462C0100D08A
:100C700070B5EFF3108672B60A4C2368002BFCD0D7
:100C8000BFF35F8F07230122CD0819408A40435DDF
:100C900093434355BFF35F8F0023236086F310888F
:100CA00070BDC0462C0100D00021044B044ABFF3A4
:100CB0005F8F02C39342FAD17047C046000100D053
:100CC000800100D0044A1078431CDBB2172B00D9F6
:100CD000102313707047C0466013002000B5054B09
:100CE00083B00100009318221F230348FFF772FF0F
:100CF00003B000BDCCF40110982B002001238340E9
:100D0000002904D0034A1360034A13607047034A62
:100D10001360FBE780E200E000E100E080E100E03A
:100D200001228240034B1B681340581E8341D8B2F6
:100D30007047C04600E100E001238340014A136090
:100D40007047C04600E200E0084B10309B6880000E
:100D5000C358002B07D0064A00209B1A2F229A4224
:100D60004041C0B270470020FCE7C04600ED00E003
:100D700064130020024B10309B688000C0587047FD
:100D800000ED00E070B50D00EFF3108672B60F4A6B
:100D90001368002BFCD0BFF35F8F0D4B10309B68A6
:100DA00084001B590B4A934203D09D4201D001F0AD
:100DB000F5FD074B9B681D51BFF35F8FBFF35F8F3E
:100DC0000022024B1A6086F3108870BD240100D007
:100DD00000ED00E0CD010010F0B557464E46454607
:100DE000DE46E0B5894683B005001700EFF3108AB0
:100DF00072B65E4A1368002BFCD0BFF35F8F0020F1
:100E00005B4B18569B46002800DA6CE05A464400BB
:100E1000584E2418A400331998469B791035137046
:100E2000554BAA009B6801929B589C469B1B2F2BFD
:100E300028D8012261469143CB79BB4208D86AE0A9
:100E400053009B189B00F318DD79BD4251D919005E
:100E500006228A56002AF3DA0B1D9B46474E43466C
:100E60005C46043B1B1B1B05454C5B0D23438B80E1
:100E7000887141468A714A46424B8E800B60CF7121
:100E80008A601BE0404B9C4542D142463F4B0234B6
:100E900013803F4B3619043B9E1B3605384B760DAD
:100EA0001E433C4B56809380FF23D771937143467A
:100EB0004A469A60012342461A43944661462E4BA5
:100EC000019A9B689950BFF35F8FBFF35F8F002239
:100ED000264B1A608AF3108803B03CBC90469946B2
:100EE000A246AB46F0BD01F059FD5B460020185606
:100EF0008CE70B1D9B468B8804345B051B155B44FC
:100F000036199E1BE0233605760D1B021E43A6E70D
:100F100001F044FDB9E745460B001F489B1B5B41B0
:100F20005843000D194B2B80A31C9C46B4446546C6
:100F3000174B0434043B5B1B1B05114D5B0DAC468A
:100F40002B43454636196B800B1F9E1B6346A871C9
:100F500048463605760D1E430A4BAE80EF71A860F9
:100F60000B60434613439C46A8E7C046240100D0CB
:100F7000E87300206413002000ED00E001BD0000D4
:100F800000E0FFFF01488047CD01001000A1FFFFF6
:100F90009413002001BDFFFFAAAA0000F0B5DE46B1
:100FA00057464E464546E0B50C0083B0EFF3108936
:100FB00072B6594A1368002BFCD0BFF35F8F574BB2
:100FC0009A68030010339F00D559554A90469542C0
:100FD00032D0A54243D0534EAA1B2F2A2CD801222F
:100FE000824092465146504A126811400191514642
:100FF0004E4A1160BFF35F8FEFF305829346002ADC
:1010000033D101232A009A4393689C4208D178E0A7
:101010004B005B189B00F3189968A1422AD01A0074
:10102000062151560029F3DA019B002B19D05246B4
:101030003F4B1A603C4B1A60384B9B68DD51BFF345
:101040005F8FBFF35F8F0022334B1A6089F31088E4
:1010500003B03CBC90469946A246AB46F0BD150095
:10106000EAE75246314B1A60E6E79342C9D001F0F5
:1010700095FCC6E706215956002922DB4A00501884
:10108000800034188046A0689860E079D871062006
:1010900020569871A0797F2824D8A488F01A640576
:1010A000241544440019E0240005400D2402204387
:1010B000988052181F4B9200B6181A781970B271A6
:1010C000B2E7594600290FD1FF3191711A49918039
:1010D00018490A789A71194A9B1B5B415A43120DB1
:1010E0000A70A1E71648E3E7164A1749D21A083AE8
:1010F0005002400D01439980144952080A43DA8096
:1011000092E70621515613000029B7DA5A46002A01
:10111000EAD14546DCE7C046240100D000ED00E0FE
:10112000CD0100106413002000E100E080E100E048
:1011300080E200E0E873002001BDFFFFAAAA0000E2
:1011400001BD00009E13002000F0FFFF00F8FFFF2C
:10115000032310B50400074A18409446C0009C437E
:10116000FC3383406444226881409A4313000B435C
:10117000236010BD00E400E0F0B5EFF30581012429
:101180000443EFF3108672B6214A1368002BFCD09B
:10119000BFF35F8F1F4B05001F4AED1A6D416A4375
:1011A000120D1E4D8900AF6852B27F58A7421CD065
:1011B0000621595691421CD012215956914222D0F3
:1011C0001E215956914220D02A215956032491427A
:1011D00010D0134B19781A708171BFF35F8F002202
:1011E0000B4B1A6086F31088F0BDAB680D4C5C5059
:1011F000EFE700246100091989005B18FF2199714C
:1012000009499980E5E70124F4E70224F2E7C046A2
:10121000240100D064130020AAAA000000ED00E021
:10122000E8730020CD01001001BDFFFF054B064A09
:101230001360064A136053609360D3601361536177
:10124000936170478080808000E400E004E400E067
:101250001F2110B5091A0248FFF70AFD10BDC0464C
:10126000F873002000B5074B83B001000093002203
:1012700005230548FFF7AEFC002801DB1F23181AE1
:1012800003B000BDE8F40110F873002070B504004D
:101290000E001500FFF716FD0100200000F006F813
:1012A000A680E580BFF35F8F70BDC046024B9C46B1
:1012B00061448900016070474000003410B50400AB
:1012C000FFF700FD01002000FFF7F0FFFF2323716F
:1012D000BFF35F8F10BDC04610B50400FFF7F2FCEE
:1012E00001002000FFF7E2FFFF23A380BFF35F8F21
:1012F00010BDC04610B504000120FFF7EFFC034B02
:10130000C3189B002360BFF35F8F10BD4000003403
:10131000034B9C46614489000160BFF35F8F7047B7
:101320004000003483680B4810B584466144624431
:10133000090112019A18591854684B6801209C42FF
:1013400001D802D00020C0B210BD12680B689A42CA
:10135000F9D8F7E7FFFFFF0F0A4B1968EFF310808A
:1013600072B60A68002AFCD0BFF35F8F1B68BFF318
:101370005F8F00221A6080F3108840BF0020002198
:101380007047C04684720020F8B5574645464E4621
:10139000DE46E0B599460CAB19780DAB1B7805001D
:1013A00090469A460768002912D1BE7B002E45D090
:1013B00074003B68A419033C1B195A783100BA73B6
:1013C000002A00D1FA7300229A705A701A7003E052
:1013D0000E004C006418033C2C4B00229C46AB686A
:1013E00061449C464346090161440B604B464B6097
:1013F0000A9B8B600B9BCB603B681B199A705A70E1
:101400001A707B7B9B46002B2CD032005946B86863
:101410007B6898473A68002817D05B4658465B00BF
:101420005B441419033BA070D118D35C002B00D08F
:1014300063705B460E707B73B34514D030003CBCC8
:1014400090469946A246AB46F8BD5B465B005B44BE
:10145000033BD3189E701119125D002A00D05A70F8
:101460005B460B707E7342464B46287D00F0E2FCE3
:10147000041E06D05346002B03D13100286800F02B
:1014800079FF0E9B002BD9D01C70D7E7FFFFFF0F11
:10149000F0B5DE4657464E4645460023E0B58BB0D4
:1014A0000893674B8200D45800239B46099000F0B4
:1014B00061FC626806000F00EFF3108572B61368D6
:1014C000002BFCD0BFF35F8F23689C465B7B994663
:1014D000002B00D169E0A2685A4B90464B441B0197
:1014E000984443461A685B6810001900801BB94194
:1014F000002900DC63E0099800F09CFC0023002236
:10150000984600230692079300239A466368BFF328
:101510005F8F5A461A6085F310885346002B08D116
:101520000028C4D10BB03CBC90469946A246AB46BD
:10153000F0BD089B414618024B461843D0476268ED
:1015400006000F00EFF3108572B61368002BFCD075
:10155000BFF35F8F002F50DB33003B4302D0236982
:10156000002B61D12368DA7B002A07D051008A184A
:1015700019688C4649466244033A51709A7B002AA6
:1015800001D14A469A734A46DA734B46E168013BF9
:10159000CA5C0132CA545B4623616368BFF35F8F44
:1015A0005A461A6085F3108881E700230022984686
:1015B000002306920793002300209A46A6E70029FD
:1015C00002D1002800D096E70021604600F030FEEE
:1015D00043461A685B680692079343469B689A469F
:1015E0004346DB689846E3684B44013B1B7808930D
:1015F0001B0203432361002088E72369002BB1D03D
:10160000069A079B921BBB41002B15DB59460491A0
:101610000121039149460291414601915146200022
:101620000091FFF7B1FEB6E700F0A4FB32003B00EB
:1016300012184B41002BE9DA0122034B5242E5E735
:10164000BC6A0020FFFFFF0FFFFFFF7F10B5144CA7
:101650006368002B04D00A211248FFF727FE10BD53
:101660002300114A1021206800F0F2FC032000F052
:101670005DFB032000F048FC03200C4900F094FBC4
:10168000FFF720FB0A4B9C4603232375D0231B0640
:101690001B6860446375074B80006060DC60DAE7BC
:1016A000AC13002084720020251300109114001048
:1016B00040000034BC6A002000487047AC13002092
:1016C00070B50500182003F03DF91649040002002A
:1016D000280000F08DFC10212060280003F050F954
:1016E0000121A060280003F04BF9E060012000F028
:1016F00031FB050000F008FC28000B4900F054FB0A
:10170000FFF7E0FA094B25759C46D0231B061B68A2
:1017100060446375064BAD0080006060EC502000B3
:1017200070BDC04625130010911400104000003415
:10173000BC6A00200E4B10B50400984217D000215F
:10174000037D0C4A9B000068995000F09FFC00212B
:10175000207D00F029FB207D00F0F4FAE06803F022
:101760002FF9A06803F02CF9200003F029F910BD2F
:10177000AC130020BC6A0020F0B54E464546DE465C
:101780005746E0B585B0019310AB1B7880460393B4
:10179000002300269946009243465A68EFF3108BC7
:1017A00072B61368002BFCD0BFF35F8F43461D68F1
:1017B000AC7B002C43D067002B683F19033FDB193B
:1017C0005A78AA73002A00D1EA7342469E705E706E
:1017D0001E709268494B94460099019AE3181B01C8
:1017E000634419605A600E9A9A600F9ADA602B6807
:1017F000DB199E705E701E706B7B9A46002B68D062
:1018000022001900A8686B6898472A68002853D0FE
:10181000534650465B005344D719033BB870D11868
:10182000D35C002B00D07B7053460C706B73544517
:1018300050D04346DB681B19013B187800E00020BC
:1018400043465B68BFF35F8F1E608BF31088002CEC
:1018500051D04B46002B08D10002204305B03CBCC0
:1018600090469946A246AB46F0BD039B002B40D064
:101870000E9B00200F999847030004000D000B43B6
:1018800037D000290ADA009A019B121BAB41009263
:101890000193002B0ADB039B99467DE700F06AFA6F
:1018A00024184D4100940195002DF4DA0123144CC5
:1018B0005B4200930194EEE753465B005344033BC5
:1018C000D3189C70D119D25D002A00D05A705346AB
:1018D0000B706C734346187D009A019B00F0AAFAC6
:1018E00081460028A5D043462100186800F042FD3B
:1018F0009FE70020B2E701204042AFE7FFFFFF0F64
:10190000FFFFFF7FF0B54546DE4657464E46E0B541
:1019100083B09046040001934268EFF3108A72B6D8
:101920001368002BFCD0BFF35F8F2668B57B002DBA
:1019300040D06F0033687F19033FDB195A78AB46FC
:10194000B273002A00D1F27300229A705A701A7092
:10195000A168344B8C464146EB181B016344196067
:10196000019959600C9999600D99D9603368DB1918
:101970009A705A701A70737B9946002B44D02A00D3
:101980001900B06873689847326800282FD04B461A
:1019900048465B004B44D719033BB870D118D35C61
:1019A000002B00D07B704B460D70002073734D45AB
:1019B00030D12AE0002300269B4600206368BFF355
:1019C0005F8F00221A608AF31088002D27D000282C
:1019D00009D15B463002184303B03CBC904699469F
:1019E000A246AB46F0BD207D00F0AEFAF1E74B46D3
:1019F0005B004B44033BD3189D70D119D25D002A84
:101A000000D05A704B460B7075734246207D019B87
:101A100000F010FAE3685B19013B1E78CEE7012065
:101A20004042D9E7FFFFFF0F70B50400002933D013
:101A30004268EFF3108572B61368002BFCD0BFF339
:101A40005F8F2068CEB2437BB34216D0FF230B409A
:101A50005A00D318026894466344033B9B78002BDA
:101A60000BD12269914219D000206368BFF35F8FC8
:101A700000221A6085F3108870BDFF230A0A0B400C
:101A8000E168D2B28C466344013B19789142EBD1B4
:101A9000310000F06FFCE8E70020EDE72361E3E7A9
:101AA000407D7047F0B504000D0006267642F7171A
:101AB000C64636196F4100B584B08F4214D811D094
:101AC00000F058F932003B00121A8B41002B15DC54
:101AD000002B3ED02000290000F056F904B004BCD1
:101AE0009046F0BD8642EBD90026002700F042F96F
:101AF00032003B00121A8B41002BE9DD00230293D8
:101B00000193154B3200009314483B00FFF734FE5D
:101B10000028DFDB00239846BC46114A114F7B6A40
:101B20009C4504D8B96A8E42D4D99C45D2D111685B
:101B3000EFF3108072B60B68002BFCD0BFF35F8F01
:101B40001368BFF35F8F4146196080F3108820BF90
:101B5000E5E7002ABED0D1E759130010AC130020EE
:101B6000847200200040054070B5060000F002F9C4
:101B7000FA2204000D00002330000021920002F040
:101B80003DFE00196941002902DBFFF78BFF70BDA4
:101B9000012001494042F8E7FFFFFF7FF0B5EFF376
:101BA0000583CE46474680B505000C0085B0002B66
:101BB00012D02C4B0020596A8C4203D89B6A01300A
:101BC000AB4204D305B00CBC90469946F0BD611AF7
:101BD000481E8141C8B2F5E7234E02930193234B7F
:101BE0000200009330000B00FFF7C6FD031EE0DD8E
:101BF00020BF7168EFF3108772B60A68002AFCD024
:101C0000BFF35F8FDAB294463068427B62451DD0E5
:101C1000FF221A405100894601689144884649468E
:101C2000414403398978002913D0F1681B0A88469A
:101C30004244013A1278DBB29A420FD07368BFF384
:101C40005F8F00221A6087F31088B2E7FF221A40E4
:101C5000EBE732699342F1D13161EFE7614600F081
:101C600089FBEBE700400540AC130020591300103E
:101C7000F0B5EFF30582D6464F4646461000C0B594
:101C80001038EFF3108872B6214C2368002BFCD07B
:101C9000BFF35F8F0123190081401E4D1F00696350
:101CA000AA461D4D29601D4D2E78AC463500C54015
:101CB0002F402B4215D05346194D5F6A83005D5962
:101CC000AF4218D3174A8E439B5862461670BFF333
:101CD0005F8F0022226088F31088002B06D098477F
:101CE00004E0BFF35F8F276088F310881CBC904628
:101CF0009946A246F0BD0C4B92009C466244136884
:101D00001360BFF35F8F0023236088F31088EDE733
:101D1000280100D0004005403C700540F7730020CA
:101D2000B872002044220020D03F054010B50100C9
:101D3000024A0348FEF72AFF10BDC04610F5011005
:101D4000E373002010B501000148FEF791FF10BDBC
:101D5000E373002000B5054B83B00100009300221F
:101D600003230348FEF736FF03B000BD34F501102E
:101D7000E3730020034B596A0A00986A596A8A4241
:101D8000FAD1704700400540064A536A9942FCD890
:101D900007D1044B02E05A6A914202D19A6A824208
:101DA000F9D370470040054070B504000D00EFF313
:101DB000108672B61A4A1368002BFCD0BFF35F8FEF
:101DC000002D1BD02000FEF7D5FF164981420AD016
:101DD0002000FEF7D7FF01212000FEF78FFF01232F
:101DE000A340114A1360114BA400E550BFF35F8F6D
:101DF00000220B4B1A6086F3108870BD0B4BA200BB
:101E0000D5500122A2400A4920000B7893430B7061
:101E10000449FFF7C3F800212000FEF76FFFE5E754
:101E2000280100D0711C00103860054044220020B9
:101E3000F7730020F0B54F46D6464646C0B50700BA
:101E40002C4C616A0D00A66A616AA942FAD18B42E4
:101E500008D805D001201CBC90469946A246F0BD8A
:101E6000B242F7D9EFF3108972B62348016800290E
:101E7000FCD0BFF35F8F01252049BD408C46097817
:101E80001C4C0E002E438846F1B28A4661465046ED
:101E90000870391D1A48890065630A51B9000B5052
:101EA000216A0020294219D0616A0800A66A616A85
:101EB0008142FAD18B4219D801D1B24216D8C2451B
:101EC00016D00C4B1F201D625D6301230740BB40F1
:101ED0000C4A1E381360634642461A70BFF35F8F88
:101EE0000022054B1A6089F31088B4E70020F5E75B
:101EF0000120F3E700400540280100D0F7730020DF
:101F0000B872002080E200E010B5EFF3108472B6E2
:101F10000A490B68002BFCD0BFF35F8F012383407D
:101F2000074A0848136202789A430270BFF35F8F32
:101F300000230B6084F3108810BDC046280100D038
:101F400000400540F773002010B5EFF3108472B61F
:101F50000A490B68002BFCD0BFF35F8F012383403D
:101F6000074802781A430270BFF35F8F00220A60AD
:101F700084F31088034A136010BDC046280100D0C6
:101F8000F77300203C60054070B505000E0014009A
:101F9000002924D0002A24D080686B6898472968DB
:101FA00000280ED063001B197200033B9219CB1856
:101FB000033A9E7088188A5C002A14D1047030009D
:101FC0000EE073009B196200033B1219CB18033A11
:101FD0009C7088188A5C002A00D05A700670200015
:101FE00070BD0800FCE75A7004703000F8E7C04686
:101FF000F0B5C6460600884600B51021012017003E
:1020000002F0BEFC03210500300002F0B9FC43469B
:102010006B600023F4B26B73013328602C73AF60E4
:10202000AB73EC73012C06D9421C0133DBB2137085
:1020300003329C42F9D1FF231E4073009E190023F6
:10204000801903384370280004BC9046F0BDC04698
:1020500030B583600023CCB2437301330473426014
:102060008373C4730D000068012C06D9421C013330
:10207000DBB2137003329C42F9D1FF2129404B009F
:102080005918002340180338437030BD10B50400C0
:10209000006802F095FC200002F092FC10BDC046E2
:1020A000F8B5CE46474606000C0080B5002907D09B
:1020B0004D0003686D18033D5A195778002F04D15D
:1020C00020000CBC90469946F8BD7900C919033927
:1020D0008846434459788946002159705170736885
:1020E0003A002100806898473368002814D042469F
:1020F0009A18947059195B5D002B00D053700F70C3
:10210000270049463000FFF7CBFF390002003000BE
:10211000FFF73AFF0400D3E7424641465D19AF702E
:102120009A185B5C002B00D06B701470E9E7C04616
:10213000F0B557464546DE464E46E0B50D006B000D
:1021400001685B19DF1E0400C85D83B00192CA19E3
:10215000002850D043001B18033BCB185E78B446D0
:10216000002E1AD1019E002E42D0E67B002E04D014
:1021700073009B19CB18033B5D70A37B002B00D130
:10218000A573E57300282FD10023537003B03CBC26
:1021900090469946A246AB46F0BD72006244033AAF
:1021A00089184A78904600224A7091465A70010078
:1021B00032002000FFF7E8FE43468246002B07D09E
:1021C0005B0021684344033BCB185A78002A16D1A0
:1021D000424651462000FFF7D7FE2168019BCA19ED
:1021E000002BC2D10028CFD043001B18033BCB18D3
:1021F00000219970C8E7019B002BB6D1C4E75000BD
:102200008018033809184878834648464870587043
:1022100041462000FFF7B8FE594680462000FFF7F0
:102220003FFF414602002000FFF7AEFE8046CFE7A9
:10223000F0B54E464546DE465746E0B5467B0400BF
:1022400075000068AD19033D83B00191415D4219ED
:10225000002952D04B005B18033BC3185F78BC4683
:10226000002F1CD1019D002D44D0E57B002D04D012
:102270006B005B19C318033B5E70A37B002B00D17E
:10228000A673E673002931D10023300053706173C7
:1022900003B03CBC90469946A246AB46F0BD7A00DE
:1022A0006244033A80184278934600224270914675
:1022B0005A7020003A00FFF767FE5B468046002B0D
:1022C00007D05B0021685B44033BCB185A78002A97
:1022D00017D15A4641462000FFF756FE019B0100E8
:1022E00020684219002BC0D10029CDD04B005B18CB
:1022F000033BC31800209870C6E7019B002BB4D1A4
:10230000C2E75000801803380918487882464846CA
:102310004870587059462000FFF736FE53468346F2
:10232000002B07D05B0021685344033BCB185A783D
:10233000002A06D1594652462000FFF725FE834663
:10234000C7E7500080180338091848464F7848708E
:10235000587051462000FFF717FE390081462000D3
:10236000FFF79EFE494602002000FFF70DFE824661
:10237000E0E7C04670B5040000292CD0437B8B42B7
:102380002ED0056848004018033828188278002AA3
:1023900021D053009B18033BEA5CEE188A4202D11D
:1023A0001BE0002A08D053009B18033BEB185A7817
:1023B0008A42F6D142785A7000230122837043701A
:1023C0002000FFF7B5FE617B02002000FFF7DCFD77
:1023D0006073012000E0002070BD43783370EBE7AC
:1023E00001221900FFF7A4FE60730120F4E7C04644
:1023F00030B50C2083B000F0B9F9FEF7A9FB002836
:102400000ED0994B994A1A605A609A60DA601A6144
:102410005A619A61DA611A62954A5A6203B030BD14
:10242000944CA06700F0F6F90122934B1A60636C9C
:10243000012BFCD10322914B1A608E4A936B012B26
:10244000FCD1013301218E4A8E480093043300F001
:102450003DF905238C4A009301218C4800F036F9A0
:102460008B4B5A68FF2A02D8802252005A60802281
:102470007D4C824B21691201854D1A60002907D0DD
:10248000606901F02FFE431C5800C0180338FDD2CC
:10249000E0217F4B02201A681140802252012A431A
:1024A00011601968484003210140116004219A68B5
:1024B0001142FCD08022802192012A43090111603F
:1024C000802252005A60734B2361734B5968FF2975
:1024D00000D85A6003227048674B01211A6002003D
:1024E00093681942FCD0E02513681D4080235B01EE
:1024F00003431D6012684A40032111401960022104
:10250000654A93681942FCD0802380219B010343D4
:10251000090119608021614B490051606361604B82
:102520005A68FF2A00D8596080225E4BE169120187
:102530005B4D1A60002907D0606901F0D3FD431C90
:102540005800C0180338FDD2E02255490B681A40E4
:1025500080235B012B431A60802380229B012B4345
:1025600012011A608022414B52004A60E3614E4BD7
:102570005968FF2900D85A6080224C4B216A120109
:10258000494D1A60002907D0606901F0ABFD431C7A
:102590005800C0180338FDD2E02243490B681A40A6
:1025A00080235B012B431A60802380229B012B43F5
:1025B00012011A60802380225B004B602B4BD202F9
:1025C00023623B4B5968914200D25A608022394BBA
:1025D000616A1201364D1A60002907D0606901F066
:1025E00081FD431C5800C0180338FDD2E022304959
:1025F0000B681A4080235B012B431A6080238022E2
:102600009B012B4312011A608023DB024B60184BA5
:102610006362294B5A68FF2A02D8802252005A600E
:102620008022264BA1691201234D1A60002907D090
:10263000606901F057FD431C5800C0180338FDD2F3
:10264000E0221D490B681A4080235B012B431A606E
:10265000802380229B012B4312011A6080235B00A0
:102660004B600E4BA361D9E69C2B0020006CDC0272
:102670001BB70000008000403CB0004030B000407C
:10268000002F685900800240008C864700C002403D
:1026900030800040001BB7003C8000404059730769
:1026A0005480004054B000406080004060B0004062
:1026B0006C8000406CB000404880004048B0004052
:1026C000014B8000C05870479C2B0020F8B50400D7
:1026D000214817001D000E0001F004FD0100380024
:1026E00001F000FD069A2B04120313432268002A0E
:1026F00021DB1A4AA21851424A41802149018C46E5
:1027000052420A40164962440A6016490A60164954
:1027100017008D68AF43FBD1C021221D89011143F1
:1027200021222660A0600A602268002AFCDAE360A9
:1027300008230B60F8BD3F2221680A40B242D8D17D
:10274000A2681205120D8242D3D1EE21E268C902BD
:102750000A409A42CDD1EDE7001BB7000040FDBF13
:1027600000E0004000F0004000C000408023024A2A
:102770009B000343D36270470080054010B51400EE
:1027800080221B4BD2051A6000281AD00123194A57
:102790001843194BDA61194A42401A625962986229
:1027A0008022134BD2051A601549164A1160E022A7
:1027B000D2041A60002C07D18022134B12061A6033
:1027C00010BD0D4BD861EBE780236201121B920014
:1027D000121912015B049A4200D30C4A0C4B1A6086
:1027E000054B5A608022084BD2051A60E8E7C046C4
:1027F00000B00540D3C007B0008005402D3FF84F22
:10280000FCFF01000820014000A00540FFFFFF0081
:10281000946A0020AA23064A1B0113602F2305494E
:10282000D360054B19605368002BFCDA7047C04633
:102830000040024000B0FA00006002402C4B2D4ADC
:1028400070B51A602C4A2D4B2D491A6010008B6808
:102850009843FBD12B4C2C4B9C4209D2013B1D1BB6
:10286000AD080135AD002D1908CC9847AC42FBD11D
:10287000FFF7BEFD254A214B1A60214A9368DB0110
:102880008033FBD14022224B224C234D9A675A675A
:102890001A67DA66AC4208D223682000002B21D0E8
:1028A0000834FEF719FDAC42F6D31C4C1C4DA16850
:1028B000C022280002F0A2F8A560FEF7F5F9FEF7A5
:1028C000B5FCFEF7C3FE174C174B9C4209D2013BE7
:1028D0001D1BAD080135AD002D1908CC9847A54248
:1028E000FBD170BD0834FEF7E9FCAC42D4D3DCE781
:1028F00000E00040BFCDFBFEFE7F3C0000F000404A
:1029000000C00040E01C0020F01C0020FFFFFF0181
:1029100000F00140D01C0020E01C002000ED00E091
:1029200000000020F01C0020F81C002000BEFDE785
:10293000094A03001068002805D00849C3188B42D3
:1029400007D81360704706480449C31810608B42CB
:10295000F7D901204042F5E770580020000004201C
:10296000E47F002010B5FFF7E1FFC0460FB400B5CB
:10297000084883B002F09AF9049B002B07D005A900
:102980001800019101F032FB034802F08FF9012099
:10299000FFF7CCFF48F50110888F051010B50148EE
:1029A000FFF7E4FF58F501107047C046F8B55746E9
:1029B0004E46DE464546E0B51F000A9B05009B4695
:1029C0000D9B0E00914692469B0718D10B9B0C9ACB
:1029D000934214D213000B9AB8469B1A4B444C46B0
:1029E0000F0006001D00220043460134390020205C
:1029F000B047AC42F7D1AA4635003E0047460B9B94
:102A0000002B38D09A441C00D04653461A1B5B4614
:102A1000013C185D31003B00A847002CF5D10D9B0F
:102A20009B0721D543464A469C1A0C9BA3421BD9BF
:102A30003A009A464F469146E2194B463100202013
:102A40000134A8475445F7D343460C99DB1B0133A7
:102A5000B9460022994203D343464A1E4A44D21A39
:102A6000434690460133984440463CBC90469946C4
:102A7000A246AB46F8BDD046D1E7C046F0B54F46BA
:102A80004646D646C0B584B098460EAB1B78129F1A
:102A9000994694460D9C109B119EBA0725D4002E92
:102AA00069D19C4200D3C2E001223A4092461F2CD9
:102AB00000D9BBE00C9A551E302201E0202C03D037
:102AC00001342A55A342F9D85246002A0DD0B44207
:102AD0000BD21F2C62D80C9A551E302201E0202CFC
:102AE0005CD001342A55B442F9D1FA0635D57A05BD
:102AF0005DD4002C57D10F9B102B00D17CE00F9B95
:102B0000022B00D18DE030230C9A012413704B4628
:102B1000002B27D02D230C9A135501340C9B6246B1
:102B200000930397434602960194FFF73FFF04B0DA
:102B30001CBC90469946A246F0BDBB0663D4202C2F
:102B4000ECD00C9B1A19013478231370202CE5D09B
:102B500030220C9B1B191A700134202CDED04B46FE
:102B6000002BD7D17B0735D43B07D7D520230C9A30
:102B700013550134D2E7012215003D40AA463A42DE
:102B800020D04A46002A2AD10C323A4227D19C4210
:102B90009DD21F2C00D88DE7202E19D92024FA06AB
:102BA000BCD57A0503D4A3421BD0A64219D00F9BF3
:102BB000102BC2D0022BC9D1202CAFD00C9B1B19DB
:102BC000013440E09C4200D38FE71F2C00D871E70E
:102BD00020248AE72B230C9A135501349EE7013EEB
:102BE000D5E7631E012C00D185E70F9A102A20D06B
:102BF000022A25D01C00ABE7BB060DD478230C9A23
:102C000001241370A4E7202C00D187E758220C9BE5
:102C10001B191A70013499E758230C9A0124137078
:102C200096E70C9A60330124137091E72024002664
:102C30005BE7023CBA06E9D40C9A12191C0083E740
:102C40000C9A9246534462221A707FE710B500280E
:102C500000D110BD01F0DEFFFBE7C0460B0010B550
:102C6000002802D049681B68984710BDF0B5DE46C1
:102C7000574645464E46E0B59BB09B46249B0A907E
:102C80009846259B0B910C924046424619009A4665
:102C900001F0E1FC002800D0E8E001224046514666
:102CA0007F4B524201F0D2FC002800D0DEE001222E
:102CB000404651467B4B524201F0B2FC002800D006
:102CC000D4E0002200234046514601F0A9FC002830
:102CD00000D0CAE15346C14609938023289ADB00FD
:102CE0001A400E92289A1A4201D1062326934C4686
:102CF000099B234300D0D9E0289B002600271B0511
:102D000000D4AEE100230D93269B19000D9B994240
:102D100000DCB0E1C81A431E26938023289ADB000A
:102D20001A430023002528920D93279B0024AB42D1
:102D300000D95C1B0223289A1A400E92289A13424B
:102D400003D06B426B415B421C400D9B002B07D0B4
:102D50004846099932003B0001F009FC814609917F
:102D6000002200234046514601F05AFC002805D0BD
:102D7000802000068446099961440991289A4A4BAB
:102D80000A9E13404A460493269B0B990293099B83
:102D900003940092019330005B460C9A884600F041
:102DA000A1F90400002D72D0289B220098061F2351
:102DB000C017984341465B466530B0470D9B671C82
:102DC000DA179C18DB0F98466B1E99460025544075
:102DD00001E0202D13D00AAA94461F23200063444B
:102DE0000A2101355E1901F07DF930313170200082
:102DF0000A2101F077F926000400092EE9D80523FD
:102E000006934B460593002304930A3303934346EA
:102E10003A000A9E0B9F029312AB009339005B4667
:102E200030000195FFF72AFE0E9B0400002B2ED0E8
:102E30000C9B279AC51AAA4229D93C00814698467C
:102E40001700434621005A1920205B460135B04740
:102E5000AF42F6D84C460C992798631A01330022EA
:102E6000984200D30AE10134141910E0289B42462D
:102E70000493279B0B990393269B0A98029353462E
:102E8000009201935B460C9A00F02CF9040020009C
:102E90001BB03CBC90469946A246AB46F0BDC0462E
:102EA000FFFFEF7FFFFFEFFFFFF7FFFF764B099D6F
:102EB0009C466800400D604401F0E0FB734A744B8F
:102EC00001F06FFB734A744B01F04CFB2B03734A08
:102ED0001B0B1A4306000F00714B110048460022DD
:102EE000099501F03AFB6F4A6F4B01F05AFB020063
:102EF0000B003000390001F035FB01F0D7FB0D90DD
:102F000001F0BCFB694A6A4B04000D0001F049FB6B
:102F10000022684B01F026FB01F0C8FB664A060060
:102F2000664B2000290001F03CFB040030000D003E
:102F30000F9601F0A3FB624A624B01F032FB0200E4
:102F40000B002000290001F008FB02000B00060026
:102F50000F0001F026FB320004000D003B003000A2
:102F6000390001F0FFFA002210901191564B200019
:102F7000290001F0FCFA0022544B01F0F3FA0200A0
:102F80000B002000290001F0F2FA0022504B01F062
:102F9000E9FA02000B002000290001F0E8FA0D0018
:102FA000802132003B000400C905002001F0D5FA61
:102FB00002000B002000290001F0D4FA02000B00EF
:102FC0001098119901F0D3FA0022344B01F0CAFA9B
:102FD000404A0F9B9446634400221B0501F0E1FA2E
:102FE00006000F0002000B004846099901F018FB8B
:102FF00000280AD00D9B3000013B39000D930022C0
:10300000324B01F0B4FA06000F00C6250D993300CB
:1030100063318D42AD4128996D420435090500D4D4
:1030200083E63B4300D16FE6099C484621002A4ACB
:103030002A4B01F003FB002808D00022484621005B
:10304000274B01F0EDFA002800D05DE6269B002B0F
:1030500000D16AE60E9B5A1E9341269AD31A2693F4
:1030600063E6002304250D935FE680231B0653448B
:10307000C146099331E6002326934EE60A008446B2
:10308000013A6244121BEEE601FCFFFFFB799F5000
:103090001344D33FB3C8608B288AC63F0000F03F7B
:1030A0000000F83F61436F63A787D23F71A379099E
:1030B0004F930A400000E03F1655B5BBB16B02408C
:1030C000EF39FAFE422EE63F00002C40000024407B
:1030D00000001840FF0300002D431CEBE2361A3FAE
:1030E00080842E41F0B54E46DE4657464546E0B553
:1030F00097B09946209E219F229B83469846079130
:103100000C923B0032003000390001F0A4FA002894
:1031100000D0C1E1012230003900CA4B524201F017
:103120007FFA002800D0E0E0012230003900C64BD1
:10313000524201F08BFA002800D0B6E000223000A5
:103140003900C24B01F082FA002800D098E000223A
:1031500030003900BE4B01F063FA002800D08FE048
:10316000002200233000390001F05AFA002800D074
:10317000B0E000230D93249B5B0501D40623984601
:1031800008AB9C461722002430234146624404E0E9
:10319000013413550139202C01D00929F8D888466B
:1031A0003000390001F082FA4346DA00A94B0500ED
:1031B0009B181A685B680892099301F05FFA020095
:1031C0000B003000390001F0C8F9089A099B01F0A2
:1031D000E8F90A900B9101F08DFA824601F04AFA63
:1031E00002000B000A980B9901F0B7F900229A4BE4
:1031F0000A900B9101F02AFA002800D1C0E00123C7
:103200009C46E244504601F035FA02000B00089853
:10321000099901F00BFA002802D000239A460135E3
:103220004346002B69D008AB17269C460895664498
:10323000554614E001235B4243440A2128009A4684
:1032400000F050FF013430313719397028000A215D
:1032500000F048FF092D00D8D5E0D0460500202C0D
:10326000E8D10323249A1340012B00D100E10EABD7
:103270009846249B01940393239B029343461EE0AC
:10328000249B58460493239B00960197039343463F
:103290000C9A029307994B46FFF7E8FC17B03CBC29
:1032A00090469946A246AB46F0BD249B5B070ED4E0
:1032B00003226A4B2499019203912399029100936E
:1032C00058464B460C9A0799FFF770FBE6E7042235
:1032D000634BEFE73B0032000020002101F03DF995
:1032E000012306000F000D9345E7249B0393239BC6
:1032F0000293042301935B4BE1E7280001F0BEF940
:1033000002000B003000390001F027F9524B002277
:1033100006000F0001F084F90EAB984600280AD190
:103320000022300039004C4B01F090F9002802D106
:10333000EB0700D50135202C32D008AA944617237C
:10334000280063440A2101341E1900F0A3FE303125
:10335000280031700A2100F09DFE051EEBD10323E9
:10336000249A1340012B00D191E01F2C00D980E753
:103370000D9B002B3BD02D2342461355013478E79B
:1033800000220A980B99344B01F04AF9002800D02A
:1033900046E75346002B67D101239C46E2443FE7B2
:1033A0000323249A1340012B00D062E7239B002BB8
:1033B00000D15EE70D9B002B03D1249A0C331342FE
:1033C00002D0239B013B2393239B9C42CDD208AB8D
:1033D0009C461722302362441F2C06D823990134BF
:1033E00013558C42C1D0202CF8D1202441E7249BD6
:1033F0005B0721D4249B1B0700D43AE720234246D5
:103400001355013435E75746089D202C37D022004C
:1034100030214046002F08D00132B154202A43D039
:10342000D3431B191B18002BF6D10EAB98462E2345
:103430004146541C8B547EE72B23424613550134DE
:1034400017E7C046FFFFEFFFFFFFEF7F65CDCD41E0
:1034500065CDCDC160F701100000E03F64F50110BB
:1034600068F5011074F50110DB0700D4D8E693E786
:10347000239B002B00D1FAE60EAB98469AE7032374
:10348000249A1340012B00D0F1E60EAB9846239B03
:10349000002B00D169E78DE7249B0393239B0293C4
:1034A00003230193064B0AE70323249A20241340A5
:1034B000012B00D0DBE6239B2024002BDCD1D6E6B9
:1034C00070F50110F0B5DE464E4657464546E0B56C
:1034D0009FB01C00289B93460993CF4ACF4B894647
:1034E00008901A60002900D116E2002320789A463D
:1034F000002800D118E226001D004C460AE02A00F0
:103500006F1C5B46089D2100A8473D0001363078BE
:1035100000287AD02528F2D110239A46083B9946F4
:10352000043B9846023B00219C46721C1078160012
:103530000300203BDBB2102B03D8B94F9B00FB5894
:103540009F460300303B092B3CD900230A932A28CD
:1035500000D171E0002398462E2847D00300683B35
:10356000DBB2122B1FD8AF4A9B00D3589F460123D2
:1035700001321943DAE7634601321943D6E743467D
:1035800001321943D2E7534601321943CEE74B4685
:1035900001321943CAE770786C2800D1BFE280235A
:1035A0005B00194301360300253BDBB2532BA6D841
:1035B0009D4A9B00D3589F4680235B007078194337
:1035C0000136F0E700270300B800C01901364000BB
:1035D000C018337830381A00303A0700092AF3D976
:1035E0000A901800002398462E28B7D180237078BF
:1035F000DB0019430300303B721C092B00D895E116
:103600002A2800D1A6E11600A8E7A146AA462C0068
:10361000D34503D801235B425B449A465B4652463E
:1036200049460020089DA84720001FB03CBC90469A
:103630009946A246AB46F0BD099B40CB0A96002EA8
:1036400003DB50780993561C84E728380143704205
:103650000A9009935078561C7CE7782800D1D4E171
:10366000582800D168E26F2800D152E3622800D1C7
:10367000D8E110230A009A430B92692801D000F088
:10368000A2FC0A230C934B0500D4D5E101230B9A2D
:103690009A430B92692800D1CEE1642800D1CBE196
:1036A0000B9A802311009B0019408A461A4200D0D1
:1036B00032E3802311005B00194089461A4201D091
:1036C00000F002FC13005B0600D510E30B9B1B0609
:1036D00001D400F06EFC099B04CB1204120C92463C
:1036E00009935346002B00D064E30B9A103311006A
:1036F00099430B91520500D45CE3002399460B9B40
:1037000006930A9B0593434604930C9B0393002363
:10371000DEE27078682800D107E280230136194381
:1037200041E780239B007078194301363BE7462828
:1037300000D174E10722099B0491073393430A9A4D
:1037400019000392424602920CC908980092019314
:1037500009912A005B462100FFF7C4FC01360500F1
:10376000D5E6099B1A0008CA9146002B00D105E155
:10377000212211438A460EA884461F2161440995DF
:1037800000220F27A4460D0002E0202A0CD00B00D7
:103790003C001C4020003730092C00D8073801328B
:1037A000A85419090F2BF0D86446099DF0E08B0747
:1037B00000D4D1E1099B2A0099466B1C98464B46E0
:1037C00001CB21009946089F5B46C0B2B8470A9BCF
:1037D0009C466544012B00D890E2B2465E464746BF
:1037E000A846089D3A003300013721002020A84751
:1037F0004745F7D1B3464B4656463D00099301363F
:1038000085E62A006F1C5B46089D21002520A847FD
:1038100001363D007BE6C046C5340010886A0020B2
:103820007CF50110C0F501100CF60110099B04CBCA
:10383000994643460992002B00D097E013789C46A6
:10384000002B00D1B3E302235B425A1C099B924632
:1038500018000A9F0B92504402E0834200D169E1B4
:103860005A780133002AF8D1099A0A979B1A0B93C8
:1038700080230A00DB001A400C92194204D00B9BF3
:10388000434501D943460B9302231A000A400D9287
:103890000B4200D184E16046002823D00C9B002B12
:1038A00000D124E1A844C246099B57465B1B9846B9
:1038B000089BB2462A0026005C469B4609E023008E
:1038C0003100551CD8474346585D002800D13FE1E0
:1038D0002A009742F3D1A3463D00340056460D9B83
:1038E000002B69D00B9B0A99A846994264D98C4653
:1038F0006544ED1A089B47469A46B04626005C464A
:103900003A002300013731002020D047AF42F7D1E1
:10391000A346340046464FE0D24B2078089300235C
:103920009A46002800D0E6E5002471E643460600EA
:103930000A9F9800C01801324000801916780300D1
:1039400030003038303B0928F3D930009846160053
:103950000A9703E6099B023604CB9046D2434046C1
:10396000D2171040804609933078F7E513789C46CB
:10397000002B00D11AE34346013B66E71022080002
:1039800090431132104382460022490500D4F2E6EA
:103990005346069308230593434604931023039349
:1039A0000023029316AB019200932A005B4621008C
:1039B0000898FFF763F805004B4601360993A6E522
:1039C000202302009A43472A04D180231B01194374
:1039D00002239843452801D1202319430722099B3C
:1039E0000491073393430A9A1900039242460292C4
:1039F0000CC908980092019309912A005B462100A6
:103A0000FFF734F90136050081E510230C930C23F0
:103A10000A009A430B924B0500D43BE636E620237E
:103A2000194387E602230C930B910B996428EED17E
:103A30000B9B5B0500D529E60B9A802311009B00A8
:103A400019408A461A4200D0CEE0802311005B0064
:103A5000194089461A4200D0DBE113005B0600D50D
:103A60001DE10B9B09991B0600D499E208C91BB202
:103A7000D8171A18424092B209919246DA0F129260
:103A8000002B09D1802310220B99DB000B409143BE
:103A90000B91002B00D012E10B9A6123920600D506
:103AA00041230EA91F228C46DBB262440A3B5746D3
:103AB0001395A2464D460C9CB1460D9316000AE0A4
:103AC0003033DBB201357355A74200D21CE1202D03
:103AD00000D119E107002100380000F003FBCBB250
:103AE0000929EDD90D9A94466344DBB2EAE7099BB4
:103AF0005F465B1B98460A9BB3469A462600089C85
:103B00002A003B003100A04743460135585D00289C
:103B1000F6D1534634000A935E46BB46DFE6C02327
:103B20009B00B078194302363DE5C023B0781943B5
:103B3000023638E50A979BE60C230A009A431433B1
:103B40001A4310230B920C934B0500D4A8E59DE576
:103B5000A34634005646C2E60A9A012A00D82EE24D
:103B60006B1E9F18089BB046994626005C462A00AB
:103B70002300013531002020C847BD42F7D1A346BC
:103B800034004646099B3A0001CB210098467D1C33
:103B90005B46089FC0B2B847434601360993B6E476
:103BA0000B9A0A98531C904200D80AE243199B1AB8
:103BB0001F00089BB24626005C469B462A00230055
:103BC000013531002020D847BD42F7D10A9BA346DA
:103BD00001330B93099B34001B7856469C46604684
:103BE000002800D05AE6E7E60722099B07339343F3
:103BF000013294469C4462465F6809921A68FB173A
:103C00001093119310981199030053400E930B00D9
:103C10007B400F9394460E9A0F9B121A8B410E9283
:103C20000F93FB0F6246129300233A439A463DD00E
:103C30000B9A6123920600D541230022DBB20EA924
:103C40000A3B8C4691460D9343461F3262441395BE
:103C500015964D460E9E0F9FA14690460C9C1493C0
:103C60000FE0C046A92900103032D2B243460135D8
:103C70005A55BA4500D17CE1202D00D17CE10600E7
:103C80000F00220000233000390000F069FAD2B2A0
:103C9000092AE9D90D9B9C466244D2B2E6E7FF238C
:103CA000099904C913401A000991E6E60B9A1033EA
:103CB000110099430B915205BAD5002399460B9BED
:103CC00006930A9B0593434604930C9B0393129B14
:103CD00002934B46019316AB2A00009321005B46EA
:103CE0000898FEF7CBFE01360500FFF710FCFF2217
:103CF000099B02CB11408A460993F2E44B464546A4
:103D000009930136FFF703FC4E465446A946139D1E
:103D1000D5E708230C9387E60722099B07339343D3
:103D2000013294469C44624609921A685B6810000E
:103D30009A4613005246134307D10B9A10331100D1
:103D400099430B91520500D5D7E40B9A6123920653
:103D500000D541230022DBB20EA90A3B8C469146D6
:103D60000D9343461F32624457461295A2464D4674
:103D70000400B14690460C9E13930DE03032D2B24F
:103D8000434601355A550023BB4200D1FDE0202DAA
:103D900000D1FDE004000F003200002320003900B4
:103DA00000F0DEF9D2B2092AE8D90D9B9C466244A4
:103DB000D2B2E5E70B9A6123920600D54123DBB22C
:103DC0000EA90A3B1F228C460D93230062445446E1
:103DD000129517004D469A46B1460C9E08E03033C6
:103DE000DBB201357B55B4420ED3202D0CD004003C
:103DF0003100200000F076F9CBB20929EFD90D9AF5
:103E000094466344DBB2ECE74E465446A946129D05
:103E100075E4099B1A0008CAD91713925A184A4028
:103E20009146DA0F1292002B08D1802310220B99B1
:103E3000DB000B4091430B91002B2BD10B9A61239C
:103E4000920600D541230EAA1F279446DBB20A3BF7
:103E50000D95674455460993A2464C46B1460C9EC3
:103E600008E03033DBB201357B55B4420ED3202D50
:103E70000CD004003100200000F034F9CBB2092945
:103E8000EFD9099A94466344DBB2ECE74E465446B8
:103E9000AA460D9D0B9B2A0006930A9B21000593C1
:103EA000434604930C9B08980393129B013602939C
:103EB0005346019316AB00935B46FEF7DFFD139B61
:103EC00005000993FFF723FB099B04CB914612934E
:103ED000002A08D1802310220B99DB000B4091436C
:103EE0000B91002B2BD10B9A6123920600D5412315
:103EF0000EAA1F279446DBB20A3B0D956744554630
:103F00000993A2464C46B1460C9E08E03033DBB222
:103F100001357B55B4420ED3202D0CD00400310066
:103F2000200000F0DFF8CBB20929EFD9099A9446B6
:103F30006344DBB2ECE74E465446AA460D9D0B9B0C
:103F40002A0006930A9B21000593434604930C9B89
:103F500008980393002302935346019316AB0093F2
:103F60005B46FEF78BFD129B050009930136FFF7B8
:103F7000CEFAB44200D87FE6149B4C460E960F97BB
:103F8000A9469846159E139D99E6A64200D8FEE6DE
:103F9000139B4E469846A9465446129DFFF7AFFB29
:103FA00008C9D8171A184240099166E500230B93F7
:103FB0005EE4099B04CB92460993FFF792FB2F0026
:103FC000E0E50B930BE6063B0C932EE500B585B0C0
:103FD0000391012102900093034813004A4202A971
:103FE000FFF770FA05B000BD5D2C001010B5094A4E
:103FF0000300146884B0002C08D001220091064808
:10400000524203A9A047012004B010BD00F04EFEAB
:104010000020F9E7886A00204D2C00100148042197
:10402000014B1847E013002059400010014B9B68DA
:1040300018470000E0130020142310B50100188871
:1040400004331B88984710BD162310B5010018884B
:1040500002331B88984710BDF0B5C64600B500294D
:1040600016D0142304000125984618278900461805
:104070004346216818883B88984701C4431E9841ED
:1040800040420540A642F3D1280004BC9046F0BD52
:104090000125F9E7124A936F9B0815D29066D16605
:1040A000002905D0FFE7FFE7FFE7516F106F70476A
:1040B00004B580210906C2175140002800D0C8432A
:1040C0001AF0D2FF002104BDF0B5146E556E576F83
:1040D000166FFFF7E3FF1466556657671667F0BD66
:1040E000000000D0114A936F9B0813D210665166EE
:1040F000002905D0FFE7FFE7FFE7516F106F70471A
:1041000004B5002801D00020C0431AF0ADFF002103
:1041100004BDC046F0B5146E556E576F166FFFF7AD
:10412000E5FF1466556657671667F0BD000000D0BE
:1041300094464A4A926F9208624601D228E0C046ED
:10414000F0B5464E346E756E776F366F00F020F81E
:104150009446424A14665566576716676246F0BD34
:1041600094463E4A926F9208624601D254E0C0469D
:10417000F0B53A4E346E756E776F366F00F04CF8CE
:104180009446364A14665566576716676246F0BD10
:10419000002B24DB11D000293EDA00B5C943404290
:1041A00000D1013100F038F8C943404200D101315B
:1041B000DB43524200D1013300BD002AEBD100287D
:1041C00001D1002905D00020C90FC90701D1C04382
:1041D000410800B51AF018FF0022002300BD00B509
:1041E00000290ADBDB43524200D1013300F014F80E
:1041F000C943404200D1013100BDC943404200D112
:104200000131DB43524200D1013300F005F8DB43BA
:10421000524200D1013300BD002923D1002B18D117
:10422000002A0CD0BC460D4F38667A660021002368
:10423000FFE7FFE7FFE77A6F386F674670470028B0
:1042400001D00748010000B51AF0DEFE002200236D
:1042500000BD02000B00002000217047000000D0CC
:10426000FFFFFFFF002B00D0BFE0130C28D1002A76
:10427000E7D080B4114F39667A66FFE7FFE730B4C4
:10428000040C7B6F396F1B0423433B667A66FFE7A0
:10429000FFE7FFE7C04684B27B6F3D6F1B042343FB
:1042A0003B667A66FFE7FFE7C04600232C042D0C2F
:1042B0007A6F386F00196941B0BC7047000000D0B8
:1042C000F0B594460025140E01D112020835140FE2
:1042D00001D112010435940F01D192000235D40F9F
:1042E00001D152000135D40B0134254F7C66254C99
:1042F0003C660E0C93B2FFE7FFE7FFE73C6F6643B7
:10430000360C7703BE467343DF0B5B04C01AB9411A
:10431000130C7343DB18C91ACE086643360CB64437
:1043200093B273431F0F1B01C01AB941130C73439F
:104330001F0B1B05C01AB941860D8F023E43664311
:10434000360C092D24DB520A7243801A7703460A81
:104350006643360C16235B1BDE40DF40BF19644604
:104360006643821B7046043506330100D940A840DD
:10437000C01900D30131A24206D20023F0BD0000D3
:10438000000000D0FFFFFFFF121B0130F3D3F1E765
:1043900009277F1BFE406446A2B27243801A00D2F6
:1043A0000139220C7243130C1204821A99410B003A
:1043B0007046043513370100F940A840801900D336
:1043C0000131002B02D1A2420AD2F0BD013000D34C
:1043D0000131121BFAD2013BF8D1A24200D2F0BD4A
:1043E000013000D30131121BF7E7F0B51C0C00D0EF
:1043F00080E00CB400251C0A04D11B02160E3343C6
:10440000120208351C0B04D11B01160F3343120195
:1044100004359C0B04D19B00960F33439200023568
:10442000DC0B02D192185B4101351C0097186441E6
:104430000134464F7C66464C3C660E0CFFE7FFE7B6
:10444000FFE7C0463C6F6643360C7703BE4697B223
:104450007743C01B00D20139C01B00D201399FB283
:104460007743C91BC91B170C77437E04FF0B801BC6
:10447000B941CE086643360C0C2D33DBB644120B23
:104480001F053A431B0B97B27743C01B00D201397B
:104490009FB27743C91B170C77433E043F0C801B28
:1044A000B941860D8F023E43664329277F1BFE409C
:1044B0000C3D7746AF40BF1930BCA2B2ABB27243DD
:1044C0007343801A9941220C7243130C1204801A10
:1044D000994102000B000137001BA941F9D2781E57
:1044E0000021F0BD0C277F1BFE4077467F0BAF40BD
:1044F000FF19E0E700245D1C07D0144F7D66396684
:10450000FFE7FFE7FFE7FFE73C6F95B29EB2654329
:104510006643401BB141150C1E0C654366433604CF
:104520002F0C3E432D04401BB141994204D202009E
:104530000B0020000021F0BD01D19042F7D3801A7A
:10454000994101349942F2D3F6E70000000000D00F
:10455000FFFFFFFF48404140484018B4134B5B68E1
:10456000019308BD18B4114B1B68019308BD944614
:104570000F4A926F920805D2624618B40B4BDB6863
:10458000019308BD0A4AF0B5146E556E576F166F49
:104590006246FFF7F2FF064A1466556657671667CC
:1045A000F0BD18B4014B9B68019308BD087400204E
:1045B000000000D0FFB550404240504059404B40B1
:1045C000594000E0FFB5154F4C00640D03D0BC42CC
:1045D00004D10C0314D80020090D09055C00640DFA
:1045E00003D0BC4204D11C030AD800221B0D1B05BA
:1045F00001264B4009D44B4003D58B4200D1824267
:10460000FFBD9942FCD19042FFBD0B43DB18034331
:104610001343F5D0C9434918FFBD0000FF07000050
:1046200000B5FFF7CFFF804100BDC04600B5FFF7E2
:10463000C9FF01D9002000BD012000BD00B5FFF772
:10464000B9FF01D9002000BD012000BD00B5FFF772
:10465000B1FF804100BD012040054A00121804D876
:104660005A00121801D8002070470120704700201E
:10467000704700000021002805D17047C11748404D
:10468000401AFAD0C90713B5064B1B6898470CBCF3
:10469000441CA2401005120B0349091B09051943CC
:1046A000114310BD787200201F04000010B54C00AB
:1046B000620D8023D218DB00D21A5B057E2A10DD42
:1046C0009E3A13DACC170903490819435242D140E4
:1046D000640001341532202A05DAD04008436043D3
:1046E00010BD002010BD0846604310BDC80FC018A3
:1046F000013810BD18B4024B5B6A019308BD00007D
:104700000874002010B50148FEF730F9B0F7011029
:10471000132370B51D78012D15D010DD2648FFF745
:1047200093FC264C01008022200000F067F9022D46
:1047300006D02348FFF780FC224B186070BD1F4C49
:10474000214BA364F5E72E001C4C204AA3085B42D2
:104750001E401D422DD0330022602020B100611880
:10476000801B0A604A608A60CA600A614A618A6185
:10477000CA610A624A628A62CA620A634A638A63D7
:10478000CA630A644A648A64CA640A654A658A65B7
:10479000CA650A664A668A66CA660A674A67400840
:1047A000102802D18A67CA67CAE71E339B00E2500D
:1047B000C6E70023D1E7C046534400000874002038
:1047C0004C33000078720020D147001005470010DC
:1047D00007B5604601880A0A0230DF2AFAD1C9B259
:1047E000820804D3028840880004104300E0006877
:1047F000014A5050039007BD0874002051434343C1
:10480000C9188C46110C83B24B4310B4040C61439D
:1048100092B280B2504362431C041B0C001910BCBE
:1048200059411304120CC0185141614470470000F3
:10483000C10FC90700D54042002817D0F44603B481
:104840000B4B1B68984706BC81409E384042803124
:1048500007D20B0607D04900490AC0051043084398
:1048600060470130F8E7490A8902F5E77047000020
:104870007872002041000A0E80231B067E2A0BDD81
:104880009E3A0BDAC1174002400818435242D0400A
:10489000490001314843704700207047C00FC018DD
:1048A00001387047C0420DD300B5400040080021D8
:1048B00000F00EF8002801D4404200BD8020000620
:1048C00000BD0000014BDB6918470000087500209F
:1048D000014B5B6A184700000875002010B50148BD
:1048E000FEF744F868F80510132310B510481C783B
:1048F000FFF7AAFB0100012C0AD003DD80220D483E
:1049000000F07CF80C48FFF797FB0C4B186010BDCB
:10491000084C5422200000F071F82300084A80332C
:104920002168002900D122600434A342F8D1E9E7CC
:1049300053460000087500204C33000078720020B8
:10494000DD48001070B504000A4E30001AF0ECFB90
:10495000200019F093FE050030001AF04DFB002DE9
:1049600005D0054B2C199C4201D8280070BD034886
:10497000FDF7FCFFD01C002000000420C8F7011048
:1049800070B505000C000B4E30001AF0CDFB28006E
:10499000210019F039FE050030001AF02DFB002D22
:1049A00005D0054B2C199C4201D8280070BD034846
:1049B000FDF7DCFFD01C002000000420C8F7011028
:1049C00070B50400054D28001AF0AEFB200019F068
:1049D0005FFE28001AF010FB70BDC046D01C0020FE
:1049E00001480421014B1847F013002059400010E2
:1049F000014B1B6818470000F0130020014B5B6857
:104A000018470000F0130020030010B508001B68D1
:104A10001100984710BDC046F8B54746CE4680B550
:104A2000437D07000D001600002B37D00024002026
:104A3000002A1EDD4B1E98461B4B9946002C2BD09E
:104A400043461B5D0D3B5A425341DBB22A5D0A2AA5
:104A500013D00134A642F1DC864203DD311A3B68F3
:104A600028189847AD19013D2B780D3B5A42534108
:104A70003B750CBC90469946F8BD002BE9D1A0428D
:104A800003DA211A3B6828189847484602213B68F8
:104A9000013498472000DDE73B7DD7E7036811002C
:104AA00028009847E5E7C0463CF80110F0B5C64637
:104AB0000C000968060000B5802906D04B1C236055
:104AC0006418267104BC9046F0BD0F4B1D68002D84
:104AD00016D0231D98460D4F02E02D69002D0FD0F2
:104AE0002B68002BF9D03B68002B01D0AB42F4D1EE
:104AF000280041462268FFF78FFF2D69002DEFD176
:104B000001230021DBE7C0464C2C0020642C002050
:104B1000F0B5DE4657464E464546E0B585B017002F
:104B20001C0006000D00FDF725F90023324A12187B
:104B30004B41002B5BDB314908008A461AF0CCFA66
:104B400001906B1C03D130001AF088F80500002C8E
:104B500028D12B4B98462B4B1C68002C15D0002FCE
:104B600023D1294F02E02469002C0ED02368002BAA
:104B7000F9D03B68002B01D0A342F4D120002A00D9
:104B80003100C0472469002CF0D1019B002B2AD1B1
:104B9000681E8541E8B205B03CBC90469946A246E5
:104BA000AB46F0BD194B9846D5E7174B994602AB7B
:104BB000DF1D0A239B4602E02469002CE5D0236810
:104BC000002BF9D04B461B68002B01D0A342F3D138
:104BD0002A0031002000C0475B4601223900200036
:104BE0003B70C047E8E750461AF006FAD0E70122CA
:104BF000074B52429FE7C04640420F00D81C00209E
:104C0000194A00104C2C0020642C0020094A001086
:104C1000FFFFFF7FF0B5CE46474680B583B06B46B9
:104C20000500DE1D3070FDF7A5F800231A4A1218A2
:104C30004B41002B2CDB1949080088461AF04CFA2E
:104C4000174B07001C68002C16D0164B994602E043
:104C50002469002C10D02368002BF9D04B461B6828
:104C6000002B01D0A342F3D1200001223100FFF735
:104C7000D3FE2469002CEED1002F05D1280003B00B
:104C80000CBC90469946F0BD40461AF0B5F9F5E7E0
:104C90000122054B5242CEE740420F00D81C0020B3
:104CA0004C2C0020642C0020FFFFFF7F70B5040017
:104CB00019F0D4FF00230100050001222000FFF7B6
:104CC00027FF084B1C68002C06D06368002B05D01A
:104CD00098472469002CF8D1280070BD2469002C65
:104CE000F3D1F9E74C2C00200A4A1368002B05D1B8
:104CF0000CE01A001B691032002B07D09842F8D143
:104D0000002902D103691360016170470029FCD0BA
:104D10001060FAE74C2C0020F0B5CE46474680B52F
:104D2000A5B004000D00FDF725F800232A4A12184B
:104D30004B41002B49DB294E30001AF0CDF90023FE
:104D40000700039322002B00254803A9FFF73EF933
:104D5000039B8046002B14D1224B1C68002C06D0EC
:104D60006368002B0BD098472469002CF8D1002FE2
:104D700027D1404625B00CBC90469946F0BD246929
:104D8000ECE7184B1D689946002D22D0164C02E026
:104D90002D69002D11D02B68002BF9D02368002B32
:104DA00001D09D42F4D1039B28001A0004A901936D
:104DB000FFF732FE2D69002DEDD14B4603951C689F
:104DC000CCE730001AF018F9D3E70122074B524222
:104DD000B1E70395CBE7C04640420F00D81C002046
:104DE000AD4A00104C2C0020642C0020FFFFFF7FF8
:104DF0000FB400B583B004A901C90191FFF78CFF7E
:104E000003B008BC04B0184710B500F0D9F910BDC4
:104E10007047C0460022014B1A707047E9730020AA
:104E20004B790020FF2B0BD18B79002B08D1CB794C
:104E3000012B05D1082A03D98A78024B09301A7050
:104E40007047C046E97300200120704770B5012902
:104E500009D115495379107909781B0203430020C1
:104E6000994202D070BD0120FCE75378012B08D095
:104E7000022BF7D1002064220021FDF77FFC0120E6
:104E8000F0E79478D278050012021443D20502D5D7
:104E9000620A93401D000548FFF7CEF87F2103000A
:104EA000214028009847C046E97300205542000081
:104EB000012303700048704740F801104A780B78CE
:104EC00012021A438B7810B51B041A43CB781B06C9
:104ED00013439622D200934200D010BD0348FFF73F
:104EE000ABF80021030008009847C0465542000077
:104EF000024B1860024B19607047C046902B00208F
:104F0000942B002010B5024B1878FBF715FF10BD4D
:104F1000EE730020114B70B51A68002A1AD0EFF317
:104F2000108172B610680028FCD0BFF35F8F00229A
:104F30000B48596002701B68BFF35F8F1A6081F3E2
:104F4000108800240025074B1878FBF7F5FE290090
:104F5000200070BDFA240025A400F4E7B46A002004
:104F6000F0730020EE73002070B5040000200E00E6
:104F700001F016FB002835D0002001F029FB0028A5
:104F800030D0FCF7F7FE0023184A12184B41002BD3
:104F900024DB174D28001AF09FF8002822D00020AB
:104FA00001F0FEFA00280BD1012000210324404229
:104FB00000F0E0FC644228001AF01EF8200070BDEA
:104FC000002001F005FB0028EED021003200002077
:104FD00001F00AFB041EEED1033CECE70122054B75
:104FE0005242D6E703246442E8E7C04640420F003D
:104FF000B0720020FFFFFF7FF8B5DE46574680B550
:1050000005000C00FCF7B6FE0023364A12184B418F
:10501000002B5ADB344908008A461AF05DF8002854
:1050200003D10CBC92469B46F8BD002001F0B8FAB3
:1050300000284ED00026002C43DD2C4B9B4614E06C
:10504000A919002001F044FB070001200021404283
:1050500000F090FC002001F0FFFAFCF78BFE234BE0
:10506000F61918605960B4422BDD002001F04AFBAC
:10507000A71B0200B84200DD3A00002AE0D101205F
:105080000021404200F076FC002001F0E5FA00200B
:1050900001F086FA002814D0002001F033FB00282C
:1050A000E1D1FCF767FE5B460F001A685B680021E0
:1050B00084460F4812184B419F4202D8D3D19445E1
:1050C000D1D9504619F098FFABE70122094B524263
:1050D000A0E700200021054B18605960504619F0E8
:1050E0008BFF9EE740420F00B0720020601E002040
:1050F00020A10700FFFFFF7F10B5244C84B00021E2
:10510000200019F0C9FF00281CD1214B1A68002A81
:1051100016D0EFF3108172B610680028FCD0BFF3F0
:105120005F8F01241B48596002781B68D2B204705B
:10513000BFF35F8F0020186081F31088002A0AD027
:1051400004B010BD01200021404200F013FC2000FB
:1051500019F052FFF4E7FCF7AFFA0400FCF70AFE7F
:10516000FA220023920012184B41002B09DB012187
:10517000029100210191084920000091FCF7FCFAFE
:10518000DEE70122054B5242F1E7C046B072002033
:10519000B46A0020F0730020154F0010FFFFFF7F5E
:1051A000054B10B51868002804D0044B002219687C
:1051B00001F05AF810BDC046902B0020942B00201F
:1051C000D02310B51B0684B01C68FCF775FAFCF7F9
:1051D00067FCA04202D0002004B010BD264B1B7813
:1051E00001F0A2FC2548FCF769F80120FCF73AF829
:1051F000FF23234C234920701840FBF7C3FD207880
:105200000121FBF77BFD0520FBF79EFD002822D145
:10521000FCF752FA0400FCF7ADFDFA2200239200DD
:1052200012184B41002B22DB012102910021019138
:10523000154920000091FCF79FFA08220400002184
:105240001248FFF7D5FB002CC5DB11480121FFF701
:105250004BFD0120C0E700220E490520FBF7BCFDF5
:10526000FBF730FD01000948FCF752F8EDE7012299
:10527000094B5242D8E7C046C4F80510B07200206E
:10528000EE730020F9500010154F0010B46A002092
:1052900000140020054F0010FFFFFF7F00487047FB
:1052A000F0F80110004870479CF8011070B5040038
:1052B00016480378002B20D0002C06D1C1241448B6
:1052C000144BA4004380048070BD052C1CD8124BE5
:1052D0000F48A400E558811C002304E001330A8034
:1052E0000231132B0DD0EA5CDCB2002AF6D1C023C8
:1052F000013464009B001C43E5E7112100F01EF817
:10530000DAE7CA24A400DEE70020DDE7DC72002033
:10531000242C00200904000004F9011010B50248F3
:1053200000F0EAF810BDC046DC6A002010B5082283
:105330000149FFF763FB10BDDC6A002030B54B1E4E
:10534000012900D1B0E06B4A11780D112C003034E6
:105350009F2900D9ABE00470012B00D1C7E00F21D9
:10536000147821400C003034092900DDA1E044709C
:10537000022B00D1BBE051780D112C0030349F2955
:1053800000D999E08470032B00D1B0E00F2154784C
:1053900021400C003034092900DD8FE0C470042B5B
:1053A00000D1A4E091780D112C0030349F2900D950
:1053B00087E00471052B00D199E00F2194782140FA
:1053C0000C003034092900DD7DE04471062B00D14A
:1053D0008DE0D1780D112C0030349F2900D975E073
:1053E0008471072B00D182E00F21D47821400C007A
:1053F0003034092900DD6BE0C471082B00D176E060
:1054000011790D112C0030349F2964D80472092BB6
:1054100000D16CE00F21147921400C0030340929AF
:105420005BDC44720A2B62D051790D112C003034B0
:105430009F2955D884720B2B59D00F2154792140C4
:105440000C00303409294DDCC4720C2B4FD09179FB
:105450000D112C0030349F2900D9073404730D2B13
:1054600045D00F21947921400C003034092901DD09
:1054700037310C0044730E2B39D0D1790D112C002B
:1054800030349F2900D9073484730F2B2FD0D17962
:105490000F220A4011003731092A01DC3032110095
:1054A000C173102B23D010300023037030BD07349C
:1054B00051E737310C005AE7073463E737310C0006
:1054C0006CE7073475E737310C007EE7073487E770
:1054D00037310C0090E7073498E737310C00A0E72C
:1054E0000734A7E737310C00C4720C2BAFD1C018BA
:1054F000DAE7C046DC6A002030B5002589B0040038
:105500000922002101A80095FFF772FA0922002163
:1055100005A80495FFF76CFA4B236A46684613709A
:1055200004A90D2219F060FD15210822200069440C
:10553000FFF764FA09B030BD10B501210520FBF773
:10554000DDFB10BD10B500220021024800F05CF91F
:1055500010BDC0460C6300208022024B5202DA6468
:105560007047C04600201150F0B5C64600B5060091
:1055700000F024F90C231C4DFF22AB6705201B49CA
:10558000FBF72AFC40239846194C402200212000BA
:10559000FFF72EFA41460023012700222120218314
:1055A000144967706380E276A1600B6022545F301B
:1055B00060844046208705380F4922540F4A6360B3
:1055C000E160A26213606362E16219F035FD80233D
:1055D0009B052F64EB649023094A3000EA50FFF7E3
:1055E000BBFF04BC9046F0BD00001150AD08002088
:1055F000EC62002084001050000110508000105018
:1056000010D001000B785B0602D14B78052B00D03F
:1056100070478A78014B1A60FAE7C04600001150C3
:10562000F0B5C64600B5CC7888780A794B797F21E9
:10563000A40701401B02C50913434F00A20F140029
:10564000324E7A195201B2189070012068405070A1
:1056500000205B055B0DD0701383D4768046CA00B2
:10566000012D33D02A488446880162448446B444DC
:105670006046826040461060002933D0254AC90048
:1056800090466246414451603F223F339343022C8F
:1056900000D15B0020487A1901685201B218D1602C
:1056A0001E4ACB1803605140534080228846520165
:1056B000934228D84346A4061C4380237F197F01C8
:1056C0001B06F6191C4373681C6011E014488446DD
:1056D000880162448446B444604682624046106059
:1056E000002909D100236D01761973600D4BF36019
:1056F000012004BC9046F0BD084AC90090466246AD
:1057000041445162C0E7FDF749F9D3E7EC6200205C
:105710008400105004001050A86A002000001050AF
:10572000800010500001105010B519F085FC10BD1C
:1057300010B57F200C0020404000E4091100001942
:105740001A00034B4001C01800F05EF8012010BDA4
:10575000EC6200207F23180010B508400B420BD0EC
:10576000C909802240004018064940014018120132
:10577000002119F0D1FC10BD0223034AC9095B1AAC
:105780009366EEE7EC620020002011507F231800A2
:1057900010B508400B4200D110BD00234000C909DC
:1057A000411804484901401800220349C37019F008
:1057B000B3FCF1E7EC620020FFF7FFFF80220D4B06
:1057C000520410B51A600C4B0C491A6010008B681B
:1057D0009843FBD10A4C9C2200212000FFF708F9D6
:1057E0008022002152010748FFF702F9092363676D
:1057F00010BDC04600E0004000F0004000C0004086
:10580000000011500000105070B5837E04000D00A0
:105810001600002B19D100232100E3820133A68258
:10582000A3762561A01C1B3119F0FEFB002804D0D3
:1058300080219023084A8902D150200019F084FC6D
:10584000002805D00123237770BD19F05DFCE2E745
:10585000200019F049FCF7E700201150024B58785E
:10586000431E9841C0B27047E0210020024B1878D7
:105870004007C00F7047C046E0210020034B187856
:10588000FF38431E9841C0B27047C0463C14002008
:10589000F8B5CE46474680B52C4E0500337801203A
:1058A000FF2B03D00CBC90469946F8BD5322002133
:1058B0002748FFF79DF8274C2000FBF7FFFC264BFD
:1058C0001C60264C20001430FBF714FD200001F072
:1058D000F1FB234B234F1C60234B9846002B04D035
:1058E0003800FFF7E5FA214B1860424600243B7868
:1058F000002A23D01E4A90461C4A9146A34212D841
:105900000FD14346984701343B78E4B2A342F5D225
:1059100028003570FFF728FE2800FFF70DFE012054
:10592000C0E70020BEE74A461268630094461B1990
:10593000DB006344002BF4D01B68E3E700F0EEFECD
:105940003B780020002BADD1E2E7C0463C1400209C
:10595000E021002098210020342200202014002083
:1059600038220020E0730020B14E0010B81E002045
:105970001D670010F0B5DE4657464E464546E0B579
:105980008DB001F0D7F8002800D10FE1C74BC84D0A
:105990009946C84B09AC9B462E687269EFF310819B
:1059A00072B61368002BFCD0BFF35F8FB16130007B
:1059B000210001F0C9F97269B369BFF35F8F00215B
:1059C000116083F31088002800D1EFE06378082B82
:1059D000E2D84A469B00D3589F466368002BDBD031
:1059E000A0689847D8E77F222179B24E0A4050003C
:1059F000CB093618F618300001273030C378BB4386
:105A0000C370C3780337BB43C370002A00D1F2E0F0
:105A1000A94AF37C002A06D0A84A1278934200D201
:105A200060E19B1ADBB2002B00D0BFE0A44E62798C
:105A30002078A368B047AFE75B4601221B780121BD
:105A400013435A46137033235846D25C5E468A434A
:105A5000C254C25C04208243F2540133F25C8A4394
:105A6000F254F25C8243F254237800209A4600F00C
:105A700007FD602223791A40602A0DD0402A00D108
:105A8000BFE0DB06DB0E012B00D136E1022B00D19B
:105A9000D4E0002B00D1C3E020780021FFF75AFEAC
:105AA00080212078FFF756FE76E7824E3378DB07B9
:105AB00000D471E7834B002B00D16DE700E000BFFD
:105AC0006AE77C4E3378DB0700D465E77E4B002B1A
:105AD00000D161E730780007C00F00E000BF5BE74E
